:020000040800F2
:10000000000002204D2700084D2600084F2600085A
:10001000512600085326000855260008000000005D
:10002000000000000000000000000000B1620008B5
:100030005726000800000000416300085926000808
:100040009D2700089D2700089D2700089D27000880
:100050009D2700089D2700089D2700089D27000870
:100060009D2700089D2700089D2700089D27000860
:100070009D2700089D2700089D2700089D27000850
:100080009D2700089D2700089D2700089D27000840
:100090009D2700089D2700089D2700089D27000830
:1000A0009D2700089D2700089D2700089D27000820
:1000B0009D2700089D2700089D2700089D27000810
:1000C0009D2700089D2700089D2700089D27000800
:1000D0009D2700089D2700089D270008712600081D
:1000E0009D2700089D2700089D2700089D270008E0
:1000F0009D2700089D2700089D2700089D270008D0
:100100009D2700089D2700089D2700089D270008BF
:100110009D2700089D2700089D2700089D270008AF
:100120007D2600089D2700089D2700089D270008C0
:100130009D2700089D2700089D2700089D2700088F
:100140009D2700089D2700089D2700089D2700087F
:100150009D2700089D2700089D2700089D2700086F
:100160009D2700089D2700089D2700089D2700085F
:100170009D2700089D2700089D270008000000001B
:080180009D2700089D270008DF
:1001900010B5054C237833B9044B13B10448AFF3C1
:1001A00000800123237010BDF80100200000000032
:1001B00030B1000808B5034B1BB103490348AFF346
:1001C000008008BD00000000FC01002030B10008E4
:1001D000034613F8012B002AFBD1181A0138704787
:1001E00001F0FF01102A2BDB10F0070F08D010F8E8
:1001F000013B013A8B422DD010F0070F42B3F6D1EC
:10020000F0B441EA012141EA014122F007047FF004
:1002100000070023F0E80256083C85EA010586EA5B
:10022000010685FA47F5A3FA87F586FA47F6A5FA97
:1002300087F68EB9EED1F0BC01F0FF0102F00702A3
:1002400032B110F8013B013A83EA010313B1F8D14E
:100250000020704701387047002D06BF354603382F
:10026000073815F0010F07D1013015F4807F02BF68
:10027000013015F4C03F0130F0BC0138704700BFB9
:1002800081F0004102E000BF83F0004330B54FEA47
:1002900041044FEA430594EA050F08BF90EA020FB4
:1002A0001FBF54EA000C55EA020C7FEA645C7FEA47
:1002B000655C00F0E2804FEA5454D4EB5555B8BF6A
:1002C0006D420CDD2C4480EA020281EA030382EADB
:1002D000000083EA010180EA020281EA0303362D6D
:1002E00088BF30BD11F0004F4FEA01314FF4801C40
:1002F0004CEA113102D0404261EB410113F0004F52
:100300004FEA03334CEA133302D0524263EB430308
:1003100094EA050F00F0A780A4F10104D5F1200EA6
:100320000DDB02FA0EFC22FA05F2801841F1000101
:1003300003FA0EF2801843FA05F359410EE0A5F1D5
:1003400020050EF1200E012A03FA0EFC28BF4CF006
:10035000020C43FA05F3C01851EBE37101F00045BC
:1003600007D54FF0000EDCF1000C7EEB00006EEBC9
:100370000101B1F5801F1BD3B1F5001F0CD3490853
:100380005FEA30004FEA3C0C04F101044FEA4452AA
:1003900012F5800F80F09A80BCF1004F08BF5FEA31
:1003A000500C50F1000041EB045141EA050130BD11
:1003B0005FEA4C0C404141EB0101013C28BFB1F523
:1003C000801FE9D291F0000F04BF01460020B1FA6E
:1003D00081F308BF2033A3F10B03B3F120020CDA41
:1003E0000C3208DD02F1140CC2F10C0201FA0CF01F
:1003F00021FA02F10CE002F11402D8BFC2F1200C84
:1004000001FA02F120FA0CFCDCBF41EA0C01904039
:10041000E41AA2BF01EB0451294330BD6FEA040482
:100420001F3C1CDA0C340EDC04F11404C4F120026D
:1004300020FA04F001FA02F340EA030021FA04F37F
:1004400045EA030130BDC4F10C04C4F1200220FAD6
:1004500002F001FA04F340EA0300294630BD21FA14
:1004600004F0294630BD94F0000F83F4801306BFDA
:1004700081F480110134013D4EE77FEA645C18BFCE
:100480007FEA655C29D094EA050F08BF90EA020F65
:1004900005D054EA000C04BF1946104630BD91EA5D
:1004A000030F1EBF0021002030BD5FEA545C05D160
:1004B0004000494128BF41F0004130BD14F580049F
:1004C0003CBF01F5801130BD01F0004545F0FE4113
:1004D00041F470014FF0000030BD7FEA645C1ABF48
:1004E000194610467FEA655C1CBF0B46024650EA7F
:1004F000013406BF52EA033591EA030F41F40021AB
:1005000030BD00BF90F0000F04BF0021704730B530
:100510004FF4806404F132044FF000054FF0000105
:1005200050E700BF90F0000F04BF0021704730B5C6
:100530004FF4806404F1320410F0004548BF40429B
:100540004FF000013EE700BF42004FEAE2014FEAF0
:1005500031014FEA02701FBF12F07F4393F07F4FCB
:1005600081F06051704732F07F4208BF704793F0CE
:100570007F4F04BF41F40021704730B54FF46074E1
:1005800001F0004521F000411CE700BF50EA0102E4
:1005900008BF704730B54FF000050AE050EA01028D
:1005A00008BF704730B511F0004502D5404261EBFD
:1005B00041014FF4806404F132045FEA915C3FF43E
:1005C000D8AE4FF003025FEADC0C18BF03325FEADB
:1005D000DC0C18BF033202EBDC02C2F1200300FA8C
:1005E00003FC20FA02F001FA03FE40EA0E0021FAB1
:1005F00002F11444BDE600BF70B54FF0FF0C4CF49F
:10060000E06C1CEA11541DBF1CEA135594EA0C0F50
:1006100095EA0C0F00F0DEF82C4481EA030621EA8B
:100620004C5123EA4C5350EA013518BF52EA0335C6
:1006300041F4801143F4801338D0A0FB02CE4FF078
:100640000005E1FB02E506F00042E0FB03E54FF0A8
:100650000006E1FB03569CF0000F18BF4EF0010EA0
:10066000A4F1FF04B6F5007F64F5407404D25FEA9C
:100670004E0E6D4146EB060642EAC62141EA55514F
:100680004FEAC52040EA5E504FEACE2EB4F1FD0C91
:1006900088BFBCF5E06F1ED8BEF1004F08BF5FEA0F
:1006A000500E50F1000041EB045170BD06F00046C1
:1006B00046EA010140EA020081EA0301B4EB5C046E
:1006C000C2BFD4EB0C0541EA045170BD41F4801166
:1006D0004FF0000E013C00F3AB8014F1360FDEBF8B
:1006E000002001F0004170BDC4F10004203C35DA67
:1006F0000C341BDC04F11404C4F1200500FA05F3EA
:1007000020FA04F001FA05F240EA020001F000428A
:1007100021F0004110EBD37021FA04F642EB060100
:100720005EEA430E08BF20EAD37070BDC4F10C042A
:10073000C4F1200500FA04F320FA05F001FA04F2EE
:1007400040EA020001F0004110EBD37041F10001DA
:100750005EEA430E08BF20EAD37070BDC4F12005E5
:1007600000FA05F24EEA020E20FA04F301FA05F24D
:1007700043EA020321FA04F001F0004121FA04F2F5
:1007800020EA020000EBD3705EEA430E08BF20EAC5
:10079000D37070BD94F0000F0FD101F000464000FF
:1007A00041EB010111F4801F08BF013CF7D041EA81
:1007B000060195F0000F18BF704703F00046520085
:1007C00043EB030313F4801F08BF013DF7D043EA56
:1007D0000603704794EA0C0F0CEA135518BF95EA0C
:1007E0000C0F0CD050EA410618BF52EA4306D1D193
:1007F00081EA030101F000414FF0000070BD50EAB2
:10080000410606BF1046194652EA430619D094EA3B
:100810000C0F02D150EA013613D195EA0C0F05D125
:1008200052EA03361CBF104619460AD181EA030179
:1008300001F0004141F0FE4141F470014FF0000031
:1008400070BD41F0FE4141F4780170BD70B54FF0CC
:10085000FF0C4CF4E06C1CEA11541DBF1CEA13554C
:1008600094EA0C0F95EA0C0F00F0A7F8A4EB05042E
:1008700081EA030E52EA03354FEA013100F0888025
:100880004FEA03334FF0805545EA131343EA1263EE
:100890004FEA022245EA111545EA10654FEA0026A3
:1008A0000EF000419D4208BF964244F1FD0404F55C
:1008B000407402D25B084FEA3202B61A65EB0305B8
:1008C0005B084FEA32024FF480104FF4002CB6EB75
:1008D000020E75EB030E22BFB61A754640EA0C00F5
:1008E0005B084FEA3202B6EB020E75EB030E22BF35
:1008F000B61A754640EA5C005B084FEA3202B6EB76
:10090000020E75EB030E22BFB61A754640EA9C0034
:100910005B084FEA3202B6EB020E75EB030E22BF04
:10092000B61A754640EADC0055EA060E18D04FEAC2
:10093000051545EA16754FEA06164FEAC30343EA62
:1009400052734FEAC2025FEA1C1CC0D111F4801F2F
:100950000BD141EA00014FF000004FF0004CB6E728
:1009600011F4801F04BF01430020B4F1FD0C88BFC7
:10097000BCF5E06F3FF6AFAEB5EB030C04BFB6EBD2
:10098000020C5FEA500C50F1000041EB045170BDC5
:100990000EF0004E4EEA113114EB5C04C2BFD4EBF2
:1009A0000C0541EA045170BD41F480114FF0000E76
:1009B000013C90E645EA060E8DE60CEA135594EAF2
:1009C0000C0F08BF95EA0C0F3FF43BAF94EA0C0FF5
:1009D0000AD150EA01347FF434AF95EA0C0F7FF46A
:1009E00025AF104619462CE795EA0C0F06D152EABE
:1009F00003353FF4FDAE1046194622E750EA4106A2
:100A000018BF52EA43067FF4C5AE50EA41047FF4B2
:100A10000DAF52EA43057FF4EBAE12E74FF0FF3C17
:100A200006E000BF4FF0010C02E000BF4FF0010CE8
:100A30004DF804CD4FEA410C7FEA6C5C4FEA430C61
:100A400018BF7FEA6C5C1BD001B050EA410C0CBFB0
:100A500052EA430C91EA030F02BF90EA020F002012
:100A6000704710F1000F91EA030F58BF994208BF79
:100A700090422CBFD8176FEAE37040F00100704736
:100A80004FEA410C7FEA6C5C02D150EA013C07D18D
:100A90004FEA430C7FEA6C5CD6D152EA033CD3D0D8
:100AA0005DF8040B704700BF8446104662468C46D2
:100AB0001946634600E000BF01B5FFF7B7FF002805
:100AC00048BF10F1000F01BD4DF808EDFFF7F4FF2E
:100AD0000CBF012000205DF808FB00BF4DF808EDB9
:100AE000FFF7EAFF34BF012000205DF808FB00BFDC
:100AF0004DF808EDFFF7E0FF94BF012000205DF8FE
:100B000008FB00BF4DF808EDFFF7CEFF94BF0120B2
:100B100000205DF808FB00BF4DF808EDFFF7C4FFAB
:100B200034BF012000205DF808FB00BF4FEA410CF4
:100B30007FEA6C5C02D150EA013C0AD14FEA430CD7
:100B40007FEA6C5C02D152EA033C02D14FF0000014
:100B500070474FF0010070474FEA410212F5001252
:100B600015D211D56FF47873B3EB625212D94FEAF4
:100B7000C12343F0004343EA505311F0004F23FADE
:100B800002F018BF404270474FF00000704750EA33
:100B9000013005D111F0004008BF6FF000407047F0
:100BA0004FF00000704700BF4FEA4102B2F1E0434E
:100BB00024BFB3F5001CDCF1FE5C0DD901F0004C44
:100BC0004FEAC0024CEA5070B2F1004F40EB830094
:100BD00008BF20F00100704711F0804F21D113F1C0
:100BE0003872BCBF01F00040704741F480114FEAF9
:100BF0005252C2F11802C2F1200C10FA0CF320FA82
:100C000002F018BF40F001004FEAC1234FEAD3239E
:100C100003FA0CFC40EA0C0023FA02F34FEA430308
:100C2000CCE77FEA625307D150EA01331EBF4FF091
:100C3000FE4040F44000704701F0004040F0FE40AC
:100C400040F40000704700BF53B94AB9002908BFFB
:100C500000281CBF4FF0FF314FF0FF3000F074B997
:100C6000ADF1080C6DE904CE00F006F8DDF804E003
:100C7000DDE9022304B070472DE9F047089D0446E2
:100C80008E46002B4DD18A42944669D9B2FA82F23F
:100C900052B101FA02F3C2F1200120FA01F10CFA7B
:100CA00002FC41EA030E94404FEA1C48210CBEFBB3
:100CB000F8F61FFA8CF708FB16E341EA034306FB3C
:100CC00007F199420AD91CEB030306F1FF3080F0CB
:100CD0001F81994240F21C81023E63445B1AA4B218
:100CE000B3FBF8F008FB103344EA034400FB07F7BA
:100CF000A7420AD91CEB040400F1FF3380F00A81FB
:100D0000A74240F207816444023840EA0640E41BEF
:100D100000261DB1D4400023C5E900433146BDE89B
:100D2000F0878B4209D9002D00F0EF800026C5E93D
:100D3000000130463146BDE8F087B3FA83F6002E55
:100D40004AD18B4202D3824200F2F980841A61EBCD
:100D5000030301209E46002DE0D0C5E9004EDDE7EB
:100D600002B9FFDEB2FA82F2002A40F09280A1EBD3
:100D70000C014FEA1C471FFA8CFE0126200CB1FB28
:100D8000F7F307FB131140EA01410EFB03F0884221
:100D900008D91CEB010103F1FF3802D2884200F2AE
:100DA000CB804346091AA4B2B1FBF7F007FB101140
:100DB00044EA01440EFB00FEA64508D91CEB0404DE
:100DC00000F1FF3102D2A64500F2BB800846A4EB39
:100DD0000E0440EA03409CE7C6F12007B34022FA24
:100DE00007FC4CEA030C20FA07F401FA06F31C4353
:100DF000F9404FEA1C4900FA06F3B1FBF9F8200C60
:100E00001FFA8CFE09FB181140EA014108FB0EF0A5
:100E1000884202FA06F20BD91CEB010108F1FF3AF5
:100E200080F08880884240F28580A8F10208614401
:100E3000091AA4B2B1FBF9F009FB101144EA01410F
:100E400000FB0EFE8E4508D91CEB010100F1FF34BA
:100E50006CD28E456AD90238614440EA0840A0FB52
:100E60000294A1EB0E01A142C846A64656D353D028
:100E70005DB1B3EB080261EB0E0101FA07F722FA4C
:100E800006F3F1401F43C5E9007100263146BDE875
:100E9000F087C2F12003D8400CFA02FC21FA03F3D8
:100EA000914001434FEA1C471FFA8CFEB3FBF7F059
:100EB00007FB10360B0C43EA064300FB0EF69E427E
:100EC00004FA02F408D91CEB030300F1FF382FD217
:100ED0009E422DD9023863449B1B89B2B3FBF7F6BF
:100EE00007FB163341EA034106FB0EF38B4208D998
:100EF0001CEB010106F1FF3816D28B4214D9023ED9
:100F00006144C91A46EA004638E72E46284605E7F6
:100F10000646E3E61846F8E64B45A9D2B9EB0208C7
:100F200064EB0C0E0138A3E74646EAE7204694E757
:100F30004046D1E7D0467BE7023B614432E730468A
:100F400009E76444023842E7704700BF38B5094DED
:100F50004124592C98BF013428464FF4806194BF36
:100F6000E4B2412402F0A7F841F2883003F04FFFC9
:100F7000EFE700BF00100240F0B5234B87B001AA95
:100F800003F10806154618685968144603C4083367
:100F9000B3422246F7D118681B79206023711B4F9A
:100FA0001B4E0024CDF811400594013423463946E8
:100FB0000022284607F018F80A212A46084605F0BC
:100FC0008BFEB068FFF7C0FA0B460246114928466F
:100FD00007F00AF82A4628210A2005F07DFE0E4B6C
:100FE0000E4A1B6812680E49284606F0FDFF2A4685
:100FF00032210A2005F070FE05F0D2FD4FF4FA70A0
:1010000003F005FFD1E700BF48B10008ADB100080B
:10101000D80400205CB10008000500204C08002026
:1010200068B10008F8B51F4B1F4893ED001A1F4B1D
:101030001F4FD3ED000A1F4D2DED028BB1EE040AB8
:1010400005F0C6FF01F0F6FB9FED1B8A044601F098
:10105000F1FB041B0646C2203C6003F0D8FE154895
:1010600005F09CFC134805F0FFFC9FED144A95ED3C
:10107000071AD5ED060A95ED050AD5ED042A95ED7A
:10108000032AD5ED021A084821EE081A60EE880AF4
:1010900020EE080AF0EE443AB0EE443A06F0B6F814
:1010A0003446D4E708050020D80400203002002090
:1010B0004C080020B404002035FA8E3C00000000EB
:1010C00010B59FED132BA4B0012400239FED120B4C
:1010D000B0EE421AF0EE621A04AACDE9004302A96A
:1010E00006AB08A801F08CF8214608A800F096FF8E
:1010F00008A8642101F0B8F89FED091B9FED0A0BC9
:1011000008A800F098FF4FF47A7003F080FEFAE729
:101110000000000000000000000000000000F83F98
:10112000000000000000244000000000000024C077
:101130002DE9F041254D264EDFF8A880254C264F9D
:1011400086B03C21284602F01FFF2B685B6A3360A3
:1011500001F070FB2A68536A1168C8F80030C906AC
:10116000326827D593421FDAD31A236022681B49BD
:1011700043235A4301A841F2902392FBF3F206F075
:1011800033FF01AA14210A2005F0A6FD2B6814499B
:101190001A6801A8C2F3001206F026FF01F04AFB0C
:1011A000C82003F034FED5E793FBF7F107FB1133BA
:1011B0001344DAE7934201DD9B1AD6E74FF6FF713D
:1011C00092FBF1F1C1EB0141521AF1E794030020C7
:1011D00034020020440200203F0D040079B10008D1
:1011E00082B100083802002000B595B02C22002101
:1011F00009A806F06FFA1422002103A806F06AFA83
:101200000023194A0193116C41F080511164126C52
:1012100002F080520192019A144A0293116841F43B
:101220008041116012680E9302F480420292029A89
:101230000222089201201022CDE90B0208A802F038
:101240007BFB014608B172B6FEE70F23CDE9033000
:10125000CDE90500079003A802F04CFD08B172B675
:10126000FEE715B05DF804FB003802400070004056
:10127000A34B2DE9F04700241C70A24BA24D1C701B
:10128000A24B1C70A24B1C70A24B1C80A24B9CB0AA
:101290001C8001F0A9FAFFF7A7FF1422214613A82A
:1012A00006F018FA02942B6B9C4843F010032B6352
:1012B0002B6B03F010030293029B03942B6B43F000
:1012C00001032B632B6B03F001030393039B049433
:1012D0002B6B43F004032B632B6B03F00403049389
:1012E000049B05942B6B43F002032B632B6B03F0E1
:1012F0000203059322464FF4AF51059B01F0D6FE41
:10130000874822460C2101F0D1FE86482246202142
:1013100001F0CCFE224684484FF4084101F0C6FE9D
:1013200001264FF4BC637D4813A9CDE913364FF075
:101330000208CDE915440C2701F0DEFD784815942C
:1013400013A94FF0200ACDE91376CDF8588001F0AB
:10135000D3FD744813A9CDE913A6CDE915484FF480
:10136000805901F0C9FD6D4813A9CDE91396CDE967
:10137000154801F0C1FD4FF408436B4813A9CDE9AE
:101380001336CDE9154801F0B7FD01942B6B43F4FA
:1013900080032B632B6B654D03F4800322460521EC
:1013A00001933820019B01F0A9FB382001F0D8FB04
:1013B000102221460DEB0A0006F08CF91C22214672
:1013C0000CA8CDE9064406F085F95246214613A83B
:1013D00006F080F9564BAC60C5E90034284641F66A
:1013E0001F43C5E90334C5E9054402F08FFE08B187
:1013F00072B6FEE708A92846CDF8209002F0D0FF8B
:1014000008B172B6FEE7284602F0ACFE08B172B62B
:10141000FEE7CDE9060006A9284603F0D5F8024606
:1014200008B172B6FEE76023CDE90C30CDE90E00BD
:10143000CDE9100012900CA9284602F04BFF08B12C
:1014400072B6FEE708220CA9284602F043FF08B155
:1014500072B6FEE73A460CA9284602F03BFF08B1F7
:1014600072B6FEE7CDE91300CDE9150017904FF4F1
:1014700000531A9013A92846189303F0E3F8044682
:1014800008B172B6FEE72B4D01461C2214A806F0E7
:1014900021F94FF08043C5E900344FF0FF33C5E92F
:1014A00003340323139313A90A232846CDE90C44DC
:1014B000AC60AC611596179319961B9302F07EFEF3
:1014C00008B172B6FEE7CDE90C000CA9284603F07E
:1014D0007BF808B172B6FEE71748184C4FF4E133B9
:1014E000C0E900430C260023C0E90233C0E90563CC
:1014F0000361C36103F08EF9054608B372B6FEE7D7
:10150000490200204B02002000380240480200201F
:101510004A02002034080020360800200010024053
:1015200000000240000802400004024024040020A1
:1015300000040140940300206C0400200048004097
:101540000146CDE908001C220CA806F0C3F82022B1
:10155000294613A806F0BEF8864C8748A560A0234C
:10156000C4E900034FF47A73C4E9033520468023AD
:101570006561A36102F0F6FD08B172B6FEE7CDE940
:10158000080008A9204603F01FF808B172B6FEE76C
:101590006023CDE90C30CDE910000E901290324658
:1015A0000CA9204602F096FE08B172B6FEE7CDE91E
:1015B0001300CDE9150017904FF400531A9013A9AA
:1015C0002046189303F03EF8054608B172B6FEE7D0
:1015D000204600F0D1FF29461C2214A806F07AF814
:1015E000664C674BA560C4E900354FF6FF730126D2
:1015F0000A27C4E9033513A903232046CDE90C5576
:10160000A56113931596179719961B9702F0D6FDAF
:1016100008B172B6FEE7CDE90C000CA9204602F035
:10162000D3FF034608B172B6FEE756485649574AFB
:101630000362C0E900124FF48042C0E90233C0E9FE
:101640000423C0E9063301F01BFF054608B172B65A
:10165000FEE70146102213A806F03CF84C4C4D4B17
:10166000A560C4E9003520464B4B2561267684F8F9
:101670002050E562A362E560E66184F8305066615F
:1016800001F0F2F808B172B6FEE7159013A92046F2
:10169000CDE9137601F08EF908B172B6FEE705F0D8
:1016A0003BFB3E493E483F4C0A2203F022FB3B49AC
:1016B0003B480A2203F031F93249394A3A4805F0E9
:1016C0006FF83A4B3A4A1A603A4B00221A603A4B8A
:1016D0003A4A1A603A4B3B4A1A604FF081425A60CC
:1016E000394A9A60394ADA60394B3A4A1A603A4BB9
:1016F00007221A6003F016FB384A3948002103F02C
:101700003DFB384B384A18600021384803F036FB5F
:10171000374B384A18600021374803F02FFB374B0E
:10172000374A18600021374803F028FB364B374A08
:1017300018600021364803F021FB364B364A18600A
:101740000021364803F01AFB354B364A1860002159
:10175000354803F013FB354B186003F0F5FA2046CB
:101760004FF4806101F0A7FC4FF4FA6001F068F8D3
:10177000F5E700BF4C03002000000140DC0300201F
:1017800000080040F802002000540040A08601003C
:1017900050020020002001400100000F1C02002028
:1017A0006C04002000100240B4040020300200202D
:1017B000CDCC4C3E0805002044080020000080BF2E
:1017C000640800200000AA4200006D4300001A4394
:1017D000740800200000A040B0040020A0B200085F
:1017E0004D0F00084002002058B20008B91F000841
:1017F000140200207CB20008790F000818020020B3
:10180000E8B2000825100008040500200CB3000809
:10181000C110000840080020C4B2000831110008BF
:101820004C02002030B30008211B000848080020AB
:1018300017B4134A13686C46632B84E8030005D180
:10184000104803B05DF8044B06F0B6BB0E490868BB
:10185000013008BF002003F10103136008BF0860D6
:101860000A4A94E8030002EBC30383E80300019AE9
:101870009DF80110064803B05DF8044B06F09CBBD0
:1018800010000020B4B100080C0000200C0500205E
:10189000C5B1000870B5154E33685A1C044609D10D
:1018A000134806F089FB45F253332380002363601D
:1018B000204670BD0F4D104805EBC3035A68597898
:1018C00006F07AFB0D49336808685A1C8242326080
:1018D00005EBC305C4BF4FF0FF320A6095E8030073
:1018E000C8BF326084E80300E2E700BF0C000020BC
:1018F000DBB100080C050020EDB10008100000204D
:10190000024B1868013018BF012070470C000020FE
:101910000148002102F056BE24040020014808219D
:1019200002F050BE2404002001480C2102F04ABEFF
:101930004C03002008B5FFF7EBFFFFF7EFFFBDE812
:101940000840FFF7F1BF000008B506480122042156
:1019500001F0ACFBBDE8084002480022082101F07C
:10196000A5BB00BF0000024008B5064801220821BF
:1019700001F09CFBBDE8084002480022042101F070
:1019800095BB00BF0000024008B506480122202197
:1019900001F08CFBBDE80840034800224FF4805161
:1019A00001F084BB000802400010024008B5064860
:1019B00001224FF4805101F079FBBDE80840034853
:1019C0000022202101F072BB0010024000080240FA
:1019D000084B002210B51A60074B012204461A601A
:1019E000FFF7B2FFFFF7D0FF044B1B685C63DC63BB
:1019F00010BD00BF300800203C0800202404002057
:101A0000074A012310B51360064A04461360FFF726
:101A1000CDFFFFF7A9FF044B1B685C63DC6310BDBF
:101A2000300800203C08002024040020034A002342
:101A30001360034A12685363D36370473C08002065
:101A40002404002038B50D4B0D4C00221A600D4BBC
:101A5000206896221A600C4B5F251B68A8421D6403
:101A600008D05F380028B8BF40420A23584303F02B
:101A7000CEF92560054B4C221A7038BD2C08002089
:101A800014000020000000204C030020040000206F
:101A900038B50D4B0D4C00221A600D4B2068962274
:101AA0001A600C4BDC251B68A8421D6408D0DC388A
:101AB0000028B8BF40420A23584303F0A8F9256024
:101AC000054B52221A7038BD2C080020140000204B
:101AD000000000204C0300200400002038B50C4B0F
:101AE0000C4D01221A600C4B1B68044618642868D0
:101AF000A04208D0001B0028B8BF40420A23584328
:101B000003F085F92C60054B41221A7038BD00BFE7
:101B10002C080020140000204C03002004000020AA
:101B20002DE9F041224DDFF89C80224F2DED028BF4
:101B3000DFED218A962400262B68ABB31F4B98ED6E
:101B4000028A1A6822B100221A60F0EE488A9624AE
:101B50001B4B1B6838EE688A0BB1B1EE488AB5EEB4
:101B6000C08AF1EE10FA0BD518EE100AFEF7ECFC65
:101B700032463B46FEF740FDFEF7EEFF00F19604CD
:101B8000B5EEC08AF1EE10FA0BDD18EE100AFEF782
:101B9000DBFC32463B46FEF72FFDFEF7DDFF00F192
:101BA00096042046FFF79AFF642003F030F9C3E75C
:101BB0002C0800200000F83F000000000800002072
:101BC00030080020D804002038B50D4B0D4D0E4CC8
:101BD00001221A600D4A2B68206812688342136440
:101BE0000AD0C01A00284FF00A03B8BF4042584339
:101BF00003F00DF92B682360054B43221A7038BDA2
:101C00002C08002000000020140000204C030020BD
:101C1000040000202DE9F04F134C23785B2B87B094
:101C20001CD103AD94F8018094F80290271D05267D
:101C3000AA464FF0000B17F8013B2B70504605F8F1
:101C400001BF05F00BFD013EF5D18DF805908DF833
:101C50000480029001460198FFF7EAFD00232370FB
:101C600007B0BDE8F08F00BF5008002008B5074955
:101C7000074806F0B9F9FFF7CDFF044905483023BE
:101C80000B70BDE808400A2203F033B81C020020A4
:101C9000500800206C040020044B1B684320434381
:101CA00041F2902093FBF0F0704700BF4402002007
:101CB000024B9A68024B1A60704700BFD80400209C
:101CC0003C02002070B5234B234E2DED048B93ED89
:101CD000008ADFED228A9FED229A10EB400348BF75
:101CE000033304469D10D6ED027A77EEC87A07EEEC
:101CF000104AF0EEE77AF4EEE87AF1EE10FAA8BFB7
:101D000079EE677AB8EEC77AB4EEE77AF1EE10FAB8
:101D10001DD907EE105AB8EEC77AB4EEE77AF1EEA5
:101D200010FA05DD0F4B1B6840F2DC525A63DA6390
:101D3000B4EEE77AF1EE10FA05D80A4B1B684FF4BF
:101D40007A725A63DA63642003F061F8CBE7BDEC82
:101D5000048B70BD3C020020D80400200000F0423B
:101D60000000B4432404002010B51E4B1E4C2DED82
:101D7000028BD3ED008A9FED1D8AD4ED027A9FED90
:101D80001C7A77EEE87AF0EEE77AF4EEC77AF1EEB5
:101D900010FAA4BF9FED177A77EE677A9FED167A57
:101DA000F4EEC77AF1EE10FA19DAF4EEC87AF1EE31
:101DB00010FA05D5114B1B6840F2DC525A63DA6306
:101DC000F4EEC87AF1EE10FA05DB0C4B1B684FF409
:101DD0007A725A63DA63642003F019F8CDE7BDEC38
:101DE000028B10BD3C020020D804002000008C4271
:101DF0000000F0420000B4430000B0422404002080
:101E00002DE9F0410446FFF747FFDFF8448005461F
:101E100040F2DC5640F6B837FFF73EFF431B002B7D
:101E2000B8BF5B42A34210DAE31A1E2B07DDD8F8D5
:101E300000305F63DF63632002F0E9FFECE71EBF61
:101E4000D8F800305E63DE63F5E7BDE8F08100BFDF
:101E50002404002007B544238DF807300122052310
:101E60000DF10701024802F003FD03B05DF804FB29
:101E70006C040020F0B54C4F39688BB0002932D18A
:101E80000123102206A83B60059105F023FCFFF713
:101E900037FD38B303A8FFF7FDFC9DF80D509DF802
:101EA0000C40049E414900962B46224605A806F0A8
:101EB0009BF805AA1E210A2004F00EFF432D32D004
:101EC000FFF7F6FE4C2D10D8402D10D9A5F1410397
:101ED0000B2B0CD8DFE803F0320B27240B0B0B0B7A
:101EE0000B0B0B1B38600BB0F0BD522D18D0FFF759
:101EF0006BFE462C2FD0532C48D0422C26D0412D9F
:101F000047D0442D4BD13046FFF7DCFE2CE0FFF7E5
:101F100099FD462C1FD0532C38D0422CF1D115E01E
:101F2000FFF7B6FDF5E7FFF74FFE462C2BD0532CFD
:101F30002CD0422C15D140F6B83009E0FFF782FDD5
:101F4000462C08D0532C21D0422C22D140F2DC5018
:101F5000FFF756FD03E040F2DC50FFF739FD432D5B
:101F6000CDD13046FFF74CFFFFF760FD104B00244A
:101F70001C60104B01221A60FFF76CFF322002F048
:101F800046FF3C60AFE740F6B830E6E7FFF74EFDAE
:101F9000E5E73046FFF796FE4C2D02D0E4E7522DE0
:101FA000FAD1FFF7E1FEDFE73808002001B20008B0
:101FB0002C0800200800002008B5FFF7BBFCFFF745
:101FC00003FEFFF757FFC82002F021FFF9E772B6C2
:101FD000FEE7436C2DE9D043D3E90067C0E91467FD
:101FE000036CD0E91A89D3E900230446C0E916231B
:101FF000394642464B463046FEF78EFD10B1C4E9E5
:10200000148909E0D4E91889304642464B463946DE
:10201000FEF764FD0028F2D1BDE8D083012938B570
:1020200004460CBF0125002503D143780BB9FFF707
:10203000D0FF657038BD2DE9F84F55EC104B57ECCB
:10204000116B824611EE102A10EE100A3B4629460B
:10205000FEF758FD002837D19AF80130CAE9184533
:10206000CAE91A67002B2FD0DAF844B0DBE90089FF
:1020700032463B4640464946FEF74EFD78B1CBE935
:102080000067DAE91467DAE91A45304622462B463A
:102090003946FEF741FD68B1CAE9144514E022460D
:1020A0002B4640464946FEF719FD0028E9D0CBE90A
:1020B0000045E6E7DAE91845304622462B46394620
:1020C000FEF70CFD0028E7D1BDE8F88F2DE9F347B6
:1020D00055EC104B8246884610EE100A0022002371
:1020E00029468DED002B57EC116BFEF7F7FC00280D
:1020F0005DD10022002330463946FEF7EFFC002870
:1021000055D1DDE9000100220023FEF7E7FC00289D
:102110004DD19DED007B08F1FF338AF80280D3F1A9
:10212000000848EB03088AED087BCAE906678AF8CD
:102130000080CAE90445DAF80800FEF7E3F91D4B10
:102140000022FEF783FBCAE90A458046894602461B
:102150000B4630463946FEF74FFA06460F464B46C9
:102160004246CAE90C67DDE90001FEF76FFB9AF809
:10217000033080468946012BCAE90E8917D12246D1
:102180002B4600200021FEF77FF83246CAE90A01FB
:102190003B4600200021FEF777F84246CAE90C01D1
:1021A0004B4600200021FEF76FF8CAE90E0102B08D
:1021B000BDE8F08700408F4038B5437804460D46AF
:1021C000D3B1C3788B4217D0D0E90A230021002075
:1021D000FEF75AF8D4E90C23C4E90A0100200021D3
:1021E000FEF752F8D4E90E23C4E90C0100200021C7
:1021F000FEF74AF8C4E90E01E57038BD00000000A2
:1022000010B583640023C0E910124370002200233C
:10221000C0E9182312A3D3E9002386B0C0E91A232A
:102220006423044683609DF824108DED040B8DED2E
:10223000021B8DED002BFFF7BFFF9DED002B9DEDE9
:10224000021B9DED040B9DF820102046FFF73EFF7A
:1022500000F0F0FAA368C01A606006B010BD00BFBD
:102260000000000000E06F40F8B50D1E044620DDC0
:102270002846FEF757F90646A0680F46FEF742F9D2
:1022800002460B4630463946FEF7E0FA02460B4658
:1022900006460F46D4E90C01FEF7AEF93246C4E912
:1022A0000C013B46D4E90E01FEF7D0FAC4E90E0159
:1022B000A560F8BD82B00E4B00220092596C41F42B
:1022C00080415964596C01F4804100910099019258
:1022D000196C41F0805119641B6C03F08053019319
:1022E000019B0F216FF0010002B000F007BC00BF9E
:1022F0000038024070B5064688B01422002103A8B9
:1023000005F0E8F93268204B9A423AD103F58C3354
:10231000002501955A6C1D481D4C42F480725A6488
:102320005A6C02F480720192019A02951A6B42F083
:1023300004021A631B6B03F004030293029B012245
:10234000032303A9CDE9032300F0D6FD114B4FF47D
:102350008061C4E900354FF400634FF40050C4E9D4
:1023600004134FF48073C4E906032046C4E9025500
:10237000C4E9085500F02CFC08B1FFF728FEB4634F
:10238000A66308B070BD00BF0020014000080240F5
:10239000980200201064024030B5044689B014222F
:1023A000002103A805F096F92268144B9A4222D125
:1023B000134C144800250195236B43F0020323635B
:1023C000236B03F002030193019B4FF4407212232D
:1023D000CDE9032303210423CDE9061303A900F06B
:1023E0008BFD0295236C43F400132364236C03F4E8
:1023F00000130293029B09B030BD00BF005400409F
:1024000000380240000402400268094B9A4282B040
:102410000BD100230193074B5A6C42F001025A641E
:102420005B6C03F001030193019B02B0704700BF96
:10243000000001400038024070B514228AB0044602
:1024400000210DEB020005F045F92368B3F1804F40
:1024500037D103F50E33002400941A6C284842F05B
:1024600001021A641A6C02F001020092009A0194AF
:102470001A6B42F001021A631A6B02F00102019218
:10248000019A02941A6B42F002021A631B6B03F06A
:1024900002030293029B02264FF40043012505A983
:1024A000CDE90536099500F027FD0823CDE905366D
:1024B000CDE907440995134805A900F01DFD0AB0B0
:1024C00070BD114A9342FAD1104B002103911A6C4E
:1024D00042F004021A641A6C02F004020392039A96
:1024E00004911A6B42F002021A631B6B03F00203A1
:1024F0000493049BC0220223CDE905230993DAE764
:102500000000024000040240000800400038024081
:1025100010B5044688B01422002103A805F0DAF8AB
:102520002268134B9A4221D103F59A33002101917D
:102530005A6C104842F002025A645A6C02F00202CD
:102540000192019A02911A6B42F004021A631B6B0A
:1025500003F004030293029B4FF450720223CDE96F
:10256000032303A90323079300F0C6FC08B010BDA2
:10257000000401400008024010B5044686B0142251
:10258000002101A805F0A6F822680E4B9A4216D148
:10259000002300930C4B0D481A6B42F010021A6393
:1025A0001B6B03F010030093009B4FF48042022347
:1025B000CDE9012301A90123059300F09DFC06B09C
:1025C00010BD00BF00000140003802400010024072
:1025D00010B5044688B01422002103A805F07AF84B
:1025E0002268184B9A422BD103F5F833002401944A
:1025F0001A6C154842F480221A641A6C02F4802284
:102600000192019A02941A6B42F004021A631B6B46
:1026100003F0040302934FF44062029B0223CDE9CE
:10262000032303210723CDE9061303A900F064FC6B
:1026300027202246052100F061FA272000F090FAB9
:1026400008B010BD0048004000080240FEE7FEE769
:10265000FEE7FEE7FEE7704708B500F0DFF803F09D
:102660008FFB012803D0BDE8084003F09BBE08BDE6
:10267000014802F0D3B900BF6C040020014800F00B
:102680007DBB00BF980200200120704708B504F010
:10269000E9FF162303604FF0FF3008BD08B504F0D2
:1026A000E1FF16230360FEE770B50D4614460E46A3
:1026B000731B9C4201DC204670BDAFF3008006F81E
:1026C000010BF5E770B50D4614460E46731B9C4290
:1026D00001DC204670BD16F8010BAFF30080F5E772
:1026E0004FF0FF3070474FF400534B6000207047AD
:1026F00001207047002070470B4A116810B503464F
:1027000009B90A491160106809490A4C0344091BB8
:102710008B4206D904F0A6FF0C2303604FF0FF3074
:1027200010BD1360FCE700BF78080020E8550020CA
:102730000000022000040000034AD2F8883043F46D
:102740007003C2F88830704700ED00E0DFF834D045
:102750000D480E490E4A002302E0D458C4500433F9
:10276000C4188C42F9D30B4A0B4C002301E01360D0
:102770000432A242FBD3FFF7DFFF04F079FFFEF73C
:1027800077FD70470000022000000020F8010020C3
:10279000D8C20008F8010020E4550020FEE7000040
:1027A00038B50E4A0E4B054618784FF47A73B3FBD2
:1027B000F0F31068B0FBF3F000F0E0F9044658B90C
:1027C0000F2D09D8024629464FF0FF3000F096F948
:1027D000044B20461D6038BD0120FCE71800002096
:1027E0001C0000202000002008B50B4B1A6842F4A2
:1027F00000721A601A6842F480621A601A6842F421
:1028000080721A60032000F067F90F20FFF7C8FFFD
:10281000FFF750FD002008BD003C0240034A044B76
:1028200011681B780B441360704700BF7C080020C0
:102830001C000020014B1868704700BF7C08002076
:1028400038B50446FFF7F6FF631C1CBF054B1B7829
:10285000054618BFE418FFF7EDFF431BA342FAD368
:1028600038BD00BF1C00002038B50446002800F029
:102870009B80056C25B9FFF73DFD656484F83C50ED
:10288000236CDB0600F18E80236C23F4885323F045
:10289000020343F002032364444B5A6822F440329B
:1028A0005A605A6861680A435A60236821695A6805
:1028B00022F480725A605A6842EA01225A605A68C9
:1028C000A16822F040725A605A680A435A609A68B6
:1028D000E16822F400629A609A680A439A60344977
:1028E000A26A8A4252D0996821F070619960996811
:1028F0000A439A609A68E16A22F040529A609A68A4
:102900000A439A609A6822F002029A609A68217ECD
:1029100042EA41029A6094F82020002A3ED05A6888
:10292000616A42F400625A605A6822F460425A6056
:102930005A68013942EA41325A60DA6AE16922F49E
:102940007002DA62DA6A013942EA0152DA629A689E
:1029500022F400729A609A6894F8301042EA412298
:102960009A609A68616922F480629A609A6800208D
:1029700042EA81229A606064236C23F0030343F0EF
:1029800001032364002384F83C3038BD9A6822F0A8
:1029900070629A609A6822F04052B2E75A6822F454
:1029A0000062C9E70120EDE70120EEE700230140C6
:1029B0000100000FF7B50023019390F83C30012B84
:1029C00066D0012380F83C300D6803688E68092DBD
:1029D000ACB231D904EB4402DF681E3A4FF0070C69
:1029E0000CFA02FC27EA0C07DF60DF6806FA02F245
:1029F0003A43DA604968062901EB81022CD8596B09
:102A0000053A1F26964021EA06015963596B04FADC
:102A100002F20A435A632C4A934207D1122D39D14C
:102A2000D2F8043343F48003C2F80433002380F85F
:102A30003C30184603B0F0BD1F6905EB45024FF06E
:102A4000070C0CFA02FC27EA0C071F611F6906FA43
:102A500002F23A431A61CDE70C294FF01F010BD85F
:102A60001E6B233A914026EA01011963196B04FA9F
:102A700002F20A431A63CEE7DE6A413A914026EA3F
:102A80000101D962D96A04FA02F20A43DA62C2E7A2
:102A90000220CFE7A5F11003012BC7D80B4A5368DA
:102AA000102D43F400035360C0D1094B094A1B6841
:102AB000B3FBF2F30A2253430193019B002BB5D0E1
:102AC000019B013BF8E700BF0020014000230140CB
:102AD0001800002040420F000749CA6822F4E06253
:102AE0000302120403F4E063120C134343F0BF63C8
:102AF00043F40033CB60704700ED00E0164B30B577
:102B0000DC68C4F30224C4F10705231D042D28BF8B
:102B10000425062B4FF0FF338CBF033C002403FA3F
:102B200005F521EA0501A34022EA0302A14000289D
:102B300041EA0203ACBF00F16040084A4FEA0313C8
:102B4000B8BF00F00F00DBB2AABF00F5614013541C
:102B500080F8003330BD00BF00ED00E014ED00E070
:102B6000002808DB4209012300F01F0003FA00F0EF
:102B7000014B43F82200704700E100E00138B0F15A
:102B8000807F0BD24FF0E023054A5861F02182F894
:102B900023100020072298611A61704701207047B6
:102BA00000ED00E0036810B5084C0246D9B21039B8
:102BB0001820B1FBF0F0205CD06523F47F7020F08A
:102BC00003005F2988BF0430906510BD6CB3000816
:102BD00070B50446FFF72EFE0546002C73D0022385
:102BE00084F835302268002384F83430136823F0E9
:102BF0000103136021680B68D8072FD40B68334D8D
:102C0000A0691D40D4E901231343E26813432269FC
:102C1000134362691343E26903431343226A134374
:102C2000626A042A43EA050302BFD4E90B5635431E
:102C30002B430B604B69042A23F0070343EA02038A
:102C400033D1A26AE56A13437DB390B9012A21D03A
:102C500032F0020229D1EA0127D51EE0FFF7EAFD92
:102C6000401B0528C6D920236365032084F835005E
:102C700070BDB0F5005F14D1032A16D801A050F83A
:102C800022F000BF9B2C0008572C00089B2C00084A
:102C9000952C0008B5F1C07F07D140236365012062
:102CA000E4E7022AF9D9032AD5D04B612046FFF781
:102CB00079FFE26D3F23934083600020012360652C
:102CC00084F83530D4E70120D2E700BF3F8010F010
:102CD00070B50446866DFFF7ADFD94F83530022BD4
:102CE000054606D080236365002384F83430012034
:102CF00070BD23681A6822F016021A605A6922F021
:102D000080025A61226C0AB9A26C1AB11A6822F0C8
:102D100008021A601A6822F001021A6023681B6810
:102D200013F001030AD1E16D3F228A40B260012213
:102D300084F8352084F834301846D9E7FFF77AFD57
:102D4000401B0528EAD9202363650320002384F86B
:102D5000350084F83430CBE790F83530022B03D0BF
:102D600080234365012070470268052380F83530D1
:102D7000136823F00103136000207047F7B50023A8
:102D800001935C4B856D1F68C36D2E6808229A40C5
:102D9000324204460CD001680868400708D508682C
:102DA00020F004000860AA60626D42F001026265D2
:102DB00001229A40324208D021684969090641BF80
:102DC000AA60626D42F00202626504229A403242B9
:102DD00008D021680968880741BFAA60626D42F087
:102DE0000402626510229A40324210D023681968AA
:102DF00009070CD5AA601A68500337D51B68190358
:102E000001D4236C00E0A36C0BB120469847E16D20
:102E100020228A4032423AD023681868C60636D546
:102E2000AA6094F83520052A1A6827D122F01602E4
:102E30001A605A6922F080025A61226C0AB9A26CA7
:102E40001AB11A6822F008021A603F238B40AB6067
:102E5000012384F83530002384F83430236D002BAF
:102E600045D0204603B0BDE8F04018471A68D205A7
:102E70005EBF1A6822F008021A60C2E7500327D525
:102E80001B68190331D4636C0BB120469847636DFE
:102E90006BB3636DDA0719D522684FF41653B7FB8D
:102EA000F3F7052384F83530136823F0010313602A
:102EB000019B0133BB42019302D81368DB07F7D4AF
:102EC000012384F83530002384F83430E36CC6E7FE
:102ED0001A6812F4807208D1196821F01001196083
:102EE000012384F8353084F83420E36BCCE703B059
:102EF000F0BD00BF180000202DE9F74FDFF8A891C2
:102F0000674A00230D6801249C4004EA050CAC4389
:102F100040F0B1804D6805F003044FEA43080326F2
:102F2000671E06FA08F6012F6FEA060634D887688E
:102F300007EA060ECF6807FA08F747EA0E07876028
:102F4000476827EA0C0EC5F300179F4047EA0E07B3
:102F50004760C76807EA060E8F6807FA08F747EA6E
:102F60000E07022CC76019D14FEAD30A00EB8A0A78
:102F700003F0070BDAF820704FEA8B0B4FF00F0EBF
:102F80000EFA0BFE27EA0E0E0F6907FA0BF747EA57
:102F90000E07CAF8207001E0032CDAD1076804FAA2
:102FA00008F43E40264315F4403F066063D04FF0DE
:102FB000000ACDF804A0D9F844603A4C46F48046A3
:102FC000C9F84460D9F8446006F480460196019E31
:102FD00023F0030606F1804606F59C3603F0030E47
:102FE000D6F808804FEA8E0E0F2707FA0EF7A04298
:102FF00028EA070746D004F58064A04244D004F5CF
:103000008064A04242D004F58064A04240D004F520
:103010008064A0423ED004F58064A0423CD004F518
:103020008064A0423AD004F58064A0420CBF07241B
:10303000082404FA0EF43C43B46094686FEA0C066A
:10304000EF0254BF34404CEA04049460D468AF02E9
:1030500054BF34404CEA0404D4605468AF0354BFF6
:1030600034404CEA040454601468ED0354BF344007
:103070004CEA040414600133102B7FF443AF03B017
:10308000BDE8F08F5446D4E70124D2E70224D0E70C
:103090000324CEE70424CCE70524CAE70624C8E7C6
:1030A000003C014000000240003802400AB181614A
:1030B00070470904FBE7436901EA030221EA0301BF
:1030C00041EA02418161704701684B6913F48063F2
:1030D0004FF0000210D06FF480634B612023026335
:1030E00080F83D3080F83E20036C80F83C2043F0AF
:1030F0000403036401207047184670472DE9F84621
:1031000006460F4691461D464FEA114A3368BAF10A
:10311000010F0CBF5C699C6927EA0404A4B2B4FAED
:1031200084F46409A14501D0002017E06A1CEED0A8
:10313000FFF780FB089BC01AA84201D8002DE5D1FB
:1031400000232022336386F83D2086F83E30326C1F
:1031500086F83C3042F0200232640120BDE8F88657
:103160002DE9F04104460F461646984625686869E1
:1031700027EA000080B2B8B16B695A0516D52B68F2
:1031800043F400732B606FF480636B612022002393
:10319000236384F83D2084F83E30226C42F0040220
:1031A000226484F83C300120BDE8F081731CDED03D
:1031B000FFF740FBA0EB0800B04201D8002ED5D1AC
:1031C00000232022236384F83D2084F83E30226CC3
:1031D00042F02002E4E770B504460D461646216829
:1031E0004B6913F0400301D0002010E04A69D20679
:1031F0000ED56FF010024A612022236384F83D202F
:1032000084F83E30226C226484F83C30012070BD8A
:10321000FFF710FB801BA84201D8002DDFD100234F
:103220002022236384F83D2084F83E30226C42F053
:103230002002E8E770B504460D46164623685B6930
:103240005B0701D5002070BD2046FFF73DFFA8B900
:103250006A1CF3D0FFF7EEFA801BA84201D8002DBC
:10326000ECD100232022236384F83D2084F83E30F3
:10327000226C84F83C3042F0200222640120E2E714
:1032800070B504460D46164623685B691B0601D5DA
:10329000002070BD2046FFF717FFA8B96A1CF3D0C5
:1032A000FFF7C8FA801BA84201D8002DECD10023FB
:1032B0002022236384F83D2084F83E30226C84F879
:1032C0003C3042F0200222640120E2E72DE9F04385
:1032D0001546026885B0DDE90C789946136843F419
:1032E000807313600E463B46CDF8008000224FF0FD
:1032F00001110446FFF702FF236838B11B68DB05A4
:1033000002D54FF40073236403200AE006F0FE06A2
:103310001E61194943463A462046FFF721FF18B17E
:10332000012005B0BDE8F083236803905A69039239
:103330009B690393424639462046039BFFF7A0FF53
:1033400040B1236C042B01BF2268136843F400735F
:103350001360E5E7B9F1010F236802D1EDB21D61F9
:10336000DFE72A0A1A61394642462046FFF788FFFE
:103370000028E6D12368F1E7020001002DE9FF47AC
:103380009A46036815461A6842F480621A601A6801
:10339000DDE90C7842F480721A600E463B46CDF8A7
:1033A000008000224FF001110446FFF7A7FE2368BA
:1033B00048B11B68DB0502D54FF40073236403207A
:1033C00004B0BDE8F0875FFA86F906F0FE061E61DC
:1033D0002A4943463A462046FFF7C2FE08B101207B
:1033E000EEE7236803905A6903929B690393424670
:1033F00039462046039BFFF743FF40B1236C042B63
:1034000001BF2268136843F400731360E7E7BAF161
:10341000010F23681AD1EDB21D614246394620469C
:10342000FFF72EFF0028E9D12268136843F4807368
:1034300013604FF001110246CDF800803B46204654
:10344000FFF75CFE226860B11368B3E72A0A1A61CD
:10345000394642462046FFF713FF0028CED12368A5
:10346000D9E749F001031361044943463A4620462F
:10347000FFF776FE003818BF0120A1E70200010027
:1034800070B5044608B9012070BD90F83D3003F0D6
:10349000FF021BB980F83C20FEF77EFF242384F84E
:1034A0003D3023681A6822F001021A601A6842F45B
:1034B00000421A601A6822F400421A6000F0B6FC5A
:1034C0003F4B65689D4294BF3E4B3F4B98428CBF3B
:1034D00000230123002BD6D12268394E53683B4983
:1034E000B0FBF1F123F03F030B43B542536088BFBB
:1034F0004FF49676136A88BF714323F03F0384BF6D
:103500004FF47A76B1FBF6F1013119431162D169BA
:10351000431E2B4821F44F41854221F0FF0132D850
:103520006D0040F6FC70B3FBF5F30133034242D06B
:10353000C3F30B030B43D361D4E907301168034392
:1035400021F0C0010B4313609168D4E9030321F417
:103550000341034321F0FF010B439360D4E905309D
:10356000D168034321F0FF010B43D360136843F09C
:103570000103136000202023206484F83D30206381
:1035800084F83E0080E7A06850B905EB4505B3FB21
:10359000F5F30133C3F30B037BB143F40043C9E7F5
:1035A00019204543B3FBF5F30133C3F30B0323B1F8
:1035B00043F44043BEE70423BCE70123BAE700BF5E
:1035C000A08601007F841E00FF083D0040420F00DE
:1035D0002DE9F743044699460C9E0F469046FFF7A7
:1035E00029F994F83D30202B054603D0022003B082
:1035F000BDE8F08300903C49192301222046FFF7E3
:103600007DFD0028F2D194F83C30012BEED02068EB
:10361000012384F83C300368D9075EBF036843F098
:1036200001030360036823F400630360212384F82B
:103630003D30402384F83E30002323640A9B6362BC
:10364000BDF82C306385638D2385284BE362CDE97B
:1036500000654B46424639462046FFF737FE0028B4
:103660002AD00120C3E7FFF70BFE40B1236C042BE7
:1036700001BF2268136843F400731360F1E7636AC3
:1036800027681A4612F8011B39616262628D218D2A
:10369000013A92B262857A69481E80B2520720854B
:1036A0000AD548B15A783A6102336362638D013BAF
:1036B00002399BB221856385238D2A4631462046F7
:1036C000002BD0D1FFF7B6FD0028CFD122681368B8
:1036D00043F400731360202384F83D3084F83C00E9
:1036E00084F83E0083E700BF020010000000FFFFE7
:1036F0002DE9F043044687B09946109F0D46904649
:10370000FFF798F894F83D30202B064604D00225A8
:10371000284607B0BDE8F0830090764919230122BE
:103720002046FFF7EBFC0028F1D194F83C30012B48
:10373000EDD02068012384F83C300368DB075EBFCE
:10374000036843F001030360036823F4006303602C
:10375000222384F83D30402384F83E300023236444
:103760000E9B6362BDF83C306385638D2385624B9D
:10377000E3622946CDE900764B4642462046FFF7F4
:10378000FDFD054608B10125C2E7228D2368B2B9C7
:1037900002905A6902929A690292029A1A6842F455
:1037A00000721A60DFF85481238D002B2CD1202267
:1037B00084F83D2084F83C3084F83E30A8E7012AA4
:1037C0000AD11A6822F480621A6003905A6903923F
:1037D0009A690392039AE1E7022A0ED11A6822F449
:1037E00080621A601A6842F400621A6004905A6992
:1037F00004929B690493049BD4E705905A6905924F
:103800009B690593059BCDE7032B56D8012B15D15A
:10381000324639462046FFF7DEFC0028B3D1236844
:103820001A69636A1A70636A01336362238D013B0C
:103830002385638D013B9BB26385B5E7022B009620
:103840003B464FF000024146204619D1FFF756FC97
:10385000002898D123681A6842F400721A601A6925
:10386000636A1A70626A531C6362238D013B23856D
:10387000638D013B9BB2638523681B695370D2E75C
:10388000FFF73CFC00287FF47EAF23681A6822F41F
:1038900080621A601A69636A1A70636A009601335B
:1038A0006362238D013B2385638D013B9BB263855E
:1038B00002463B4641462046C8E732463946204646
:1038C000FFF789FC00287FF45EAF23681A69636AFA
:1038D0001A70626A531C6362238D013B2385638DDA
:1038E000013B9BB263852368596949077FF55CAF4B
:1038F000C3E700BF020010000000FFFF040001004A
:10390000044B01221A62044B82B01B680193019B95
:1039100002B0704700000E4200700040044B0022CD
:103920001A62044B82B01B680193019B02B070477E
:1039300000000E42007000402DE9F341044640B300
:103940000368DD0710D4236898075ED423681A073C
:1039500000F1A08023685B0700F1C080A069002807
:1039600040F0288100202BE08F4B9A6802F00C0277
:10397000042A07D09A6802F00C02082A0BD15A6870
:10398000510208D5884B1B689A03DCD56368002B6D
:10399000D9D1012014E06268B2F5803F13D11A68D2
:1039A00042F480321A60FEF745FF7F4E05463368C9
:1039B0009B03C8D4FEF73EFF401B6428F7D90320C1
:1039C00002B0BDE8F081784DB2F5A02F2B6807D189
:1039D00043F480232B602B6843F480332B60E2E7B1
:1039E00023F480332B602B6823F480232B60002A80
:1039F000D9D1FEF71FFF06462B689F03A3D5FEF71C
:103A000019FF801B6428F7D9D9E7674B9A6812F031
:103A10000C0F07D09A6802F00C02082A11D15B68DB
:103A20005E020ED4604A13689D0702D5E368012B3D
:103A3000AFD11368216923F0F80343EAC10313608F
:103A400084E7E268594BB2B101221A60FEF7F2FE38
:103A5000554D06462B68980707D52B68226923F039
:103A6000F80343EAC2032B6070E7FEF7E3FE801B16
:103A70000228EFD9A3E71A60FEF7DCFE4A4E05469E
:103A8000336899077FF562AFFEF7D4FE401B02282A
:103A9000F6D994E76269454B82B10122C3F8802EC2
:103AA000FEF7C8FE404E0546736F9F073FF552AFC5
:103AB000FEF7C0FE401B0228F6D980E7C3F8802E2F
:103AC000FEF7B8FE384E0546736F98077FF542AF94
:103AD000FEF7B0FE401B0228F6D970E7324B1A6C95
:103AE00012F0805228D101921A6C42F080521A646E
:103AF0001B6C03F080530193019B01272C4D2B6815
:103B0000D9051BD5A368284D012B27D12B6F43F076
:103B100001032B67FEF78EFE234E054641F28838DF
:103B2000336F9B0739D5002F3FF418AF1E4A136C33
:103B300023F08053136411E70027DFE72B6843F479
:103B400080732B60FEF776FE06462B68DA05D9D423
:103B5000FEF770FE801B0228F7D930E7052B04D151
:103B60002B6F43F004032B67D0E72A6F22F001028A
:103B70002A672A6F22F004022A67002BCAD1FEF7B7
:103B800059FE41F2883806462B6F9807CBD5FEF7D1
:103B900051FE801B4045F7D911E7FEF74BFE401B55
:103BA0004045BDD90BE700BF003802400000474246
:103BB00000700040364DAB6803F00C03082B3DD07D
:103BC000344B002202281A662BD1FEF733FE06463C
:103BD0002B6899011FD4D4E907321343626A43EA80
:103BE0008213E26A43EA0263A26A5208013A43EA94
:103BF00002436B60274B264D01221A66FEF71AFE20
:103C000004462B689A013FF5ADAEFEF713FE001B8C
:103C10000228F6D9D3E6FEF70DFE801B0228D7D97D
:103C2000CDE6FEF707FE04462B689B017FF59AAEB2
:103C3000FEF700FE001B0228F6D9C0E601283FF47B
:103C4000BFAE6B68E26903F4800191427FF4A1AEDC
:103C5000216A03F03F028A427FF49BAE616A47F615
:103C6000C0721A40B2EB811F7FF493AEA26A520871
:103C700003F44031013AB1EB024F7FF48AAEE26ABD
:103C800003F07063B3EB026F3FF46CAE81E600BFEC
:103C90000038024000004742134908B58B6803F022
:103CA0000C03042B1CD0082B1CD14A684B684968B4
:103CB00013F4800314BF0D480D48C1F3881118BFD9
:103CC000002302F03F02A1FB0001FCF7BDFF064B01
:103CD0005B68C3F3014301335B00B0FBF3F008BD45
:103CE0000248FCE70248FAE70038024040787D01CC
:103CF0000024F4002DE9F0410D46044610B90120DE
:103D0000BDE8F081444B1A6802F007028A4228D3CA
:103D1000226897072DD4D00741D43F4B1A6802F090
:103D20000702AA4266D8226851076CD4130707D548
:103D30003A4A2169936823F4604343EAC1039360DC
:103D4000FFF7AAFF354B364A9B68C3F30313D35CD6
:103D5000D840344B1860344B1868FEF721FD002022
:103D6000CEE7CAB21A701B6803F007038B42C6D1B4
:103D7000CEE72A4B12F0040F1EBF996841F4E051C0
:103D80009960160742BF996841F4604199602349E0
:103D9000A0688B6823F0F00303438B60BBE7626885
:103DA0001E4B012A1CD11B6813F4003FA7D01B4EE9
:103DB000B36823F003031343B360FEF73BFD41F206
:103DC00088380746B368626803F00C03B3EB820FD0
:103DD000A3D0FEF72FFDC01B4045F3D903208FE78A
:103DE000911E01291B6802D813F0007FDEE713F053
:103DF000020FDBE7EAB21A701B6803F00703AB425D
:103E00007FF47DAF8FE70549E0688B6823F4E053CA
:103E100003438B608AE700BF003C02400038024049
:103E200054B300081800002020000020044B054A6D
:103E30009B68C3F38223D35C034A1068D840704761
:103E40000038024064B3000818000020044B054A03
:103E50009B68C3F34233D35C034A1068D840704771
:103E60000038024064B3000818000020036A23F001
:103E700001030362036A70B5446882690D6822F029
:103E800073022A438D6823F002032B430E4DA84290
:103E900002D00E4EB04210D1CE6823F00803334357
:103EA000A84223F0040302D0084DA84205D1D1E96D
:103EB000055624F4407435432C43446082614A68BB
:103EC0004263036270BD00BF000001400004014076
:103ED000036A23F480730362036A70B54468C2699D
:103EE0000D6822F073022A438D6823F4007343EABD
:103EF0000523114DA84203D005F58065A84214D1D1
:103F0000CD6823F4006343EA05230B4DA84223F454
:103F1000806303D005F58065A84206D1D1E9055636
:103F200024F44054354344EA05144460C2614A68AD
:103F3000C263036270BD00BF00000140036A23F446
:103F400080530362036A30B54468C2690D6822F485
:103F5000E64242EA05228D6823F4005343EA053322
:103F6000084DA84203D005F58065A84204D14D69EB
:103F700024F4804444EA85144460C2614A680264BF
:103F8000036230BD0000014030B590F83E2090F84B
:103F90003F3090F8425090F84340D2B2DBB2EDB2DD
:103FA000E4B2C9B9012A46D1012D46D1022380F8D5
:103FB0003E3080F8423003681A6A22F001021A6229
:103FC0001A6A42F001021A620268136843F00103A0
:103FD00013600023184630BD042911D1012B2AD1CA
:103FE000012CF7D1022380F83F3080F8433003687A
:103FF0001A6A22F010021A621A6A42F01002E2E70C
:10400000012A18D1012B18D1012DE3D1012CE1D1C6
:10401000022380F83E3080F83F3080F8423080F84C
:10402000433003681A6A22F001021A621A6A42F0E7
:1040300001021A62DCE70123CCE71346CAE700005D
:10404000304A0368904212D0B0F1804F0FD0A2F5F1
:104050007C4290420BD002F58062904207D002F57C
:104060008062904203D002F57842904219D14A68AA
:1040700023F070031343234A904229D0B0F1804FBC
:1040800026D0A2F57C42904222D002F58062904276
:104090001ED002F5806290421AD002F5784290421A
:1040A00016D0194A904213D002F5806290420FD088
:1040B00002F5806290420BD0A2F59832904207D070
:1040C00002F58062904203D002F58062904203D1F3
:1040D000CA6823F4407313434A6923F080031343EF
:1040E00003608B68C3620B688362064B984203D0FF
:1040F00003F58063984201D10B6903630123436197
:10410000704700BF000001400040014010B5044668
:1041100030B390F83D3003F0FF021BB980F83C202B
:10412000FEF7F6F90223206884F83D30211DFFF7E1
:1041300087FF012384F84630002084F83E3084F85D
:104140003F3084F8403084F8413084F8423084F8BD
:10415000433084F8443084F8453084F83D3010BD55
:104160000120FCE710B5044630B390F83D3003F071
:10417000FF021BB980F83C20FEF746F902232068B5
:1041800084F83D30211DFFF75BFF012384F84630A2
:10419000002084F83E3084F83F3084F8403084F8C2
:1041A000413084F8423084F8433084F8443084F855
:1041B000453084F83D3010BD0120FCE7F8B50D46D0
:1041C000044600284DD090F83D3003F0FF021BB9A3
:1041D00080F83C20FEF730F92146022384F83D3078
:1041E00051F8040B836823F4804323F007038360B2
:1041F000FFF726FF20682A6886688369A968076A2E
:104200001643AA6923F4407341EA022123F0030311
:104210000B4323F47C422B69E9691B0143EA012328
:10422000E9680B43296A22F0FC0243EA0133134395
:10423000696927F0AA026F68866047EA01178361FF
:1042400017430123076284F84630002084F83E308B
:1042500084F83F3084F8423084F8433084F83D30AD
:10426000F8BD0120FCE70000036A23F0100303629D
:10427000036A70B5446882690D6822F4E64242EA36
:1042800005228D6823F0200343EA0513104DA84250
:1042900003D005F58065A84214D1CD6823F08003D2
:1042A00043EA05130A4DA84223F0400303D005F565
:1042B0008065A84206D1D1E9055624F4406435430F
:1042C00044EA8504446082614A688263036270BD87
:1042D0000000014070B590F83C30012B054653D0EA
:1042E0000120082A85F83C003DD006D8C2B1042A36
:1042F00028D0002385F83C3070BD0C2AF9D12868FD
:10430000FFF71CFE2B680969DA6942F40062DA6182
:10431000DA6922F48062DA61DA6942EA012231E084
:104320002868FFF7A3FD2B6809699A6942F0080223
:104330009A619A6922F004029A619A690A439A6121
:104340000020D6E72868FFF78FFF2B6809699A6974
:1043500042F400629A619A6922F480629A619A69D1
:1043600042EA0122EBE72868FFF7B2FD2B680969F2
:10437000DA6942F00802DA61DA6922F00402DA61ED
:10438000DA690A43DA61DBE70220B5E710B5846831
:10439000114324F47F4441EA03232343836010BD87
:1043A00070B590F83C30012B04464FF0020300F04A
:1043B0009180012280F83D3080F83C2000688368BD
:1043C00023F47F4323F0770383600B68602B52D084
:1043D00033D8402B67D016D8202B0DD00AD833F015
:1043E000100109D0012384F83D30002384F83C30CB
:1043F000104670BD302BF5D1826822F07002134355
:1044000043F0070317E0502BECD14A68CE68016AED
:10441000056A25F001050562836921F00A0123F090
:10442000F00343EA06130A4383610262836823F0C0
:10443000700343F05703836011E0B3F5805F0ED043
:10444000B3F5005F0DD0702BCCD1CB68D1E9012141
:10445000FFF79CFF2268936843F077039360002284
:10446000C0E7CB68D1E90121FFF790FF226893688C
:1044700043F48043F2E74D68CE68016A21F01001F1
:1044800001628269036A22F4704223F0A00343EAC6
:10449000051342EA063282610362836823F07003E7
:1044A00043F06703C7E74A68CE68016A056A25F0EA
:1044B00001050562836921F00A0123F0F00343EA54
:1044C00006130A4383610262836823F0700343F09A
:1044D0004703B0E71A468BE7036A01F01F0110B5E6
:1044E00001248C4023EA04030362036A8A401A43CE
:1044F000026210BD10B5044629B990F83E30012B78
:1045000018D001202DE004290DD190F83F30013B57
:1045100018BF0123002BF4D104294FF0020321D14D
:1045200084F83F3009E008290CBF90F8403090F83B
:104530004130ECE7022380F83E3020680122FFF78B
:10454000CBFF23681C498B4213D01C4A934210D0E6
:10455000B3F1804F14D19A6802F00702062A26D1DF
:10456000002010BD08290CBF84F8403084F8413089
:10457000E3E75A6C8B4242F400425A64EBD0E7E71F
:104580000F4A9342E7D002F580629342E3D002F5EE
:1045900080629342DFD002F578429342DBD002F58D
:1045A00070529342D7D0A2F594329342D3D01A6876
:1045B00042F001021A60D3E700000140000401400C
:1045C00000040040FFF796BF30B590F83C30012B57
:1045D0004FF0020332D080F83D3003680D685C680C
:1045E0009A6824F070042C435C60154CA3421AD0E6
:1045F000B3F1804F17D0A4F57C44A34213D004F547
:104600008064A3420FD004F58064A3420BD004F56C
:104610007844A34207D004F57054A34203D0A4F514
:104620009434A34204D1496822F080020A439A607C
:10463000012380F83D30002380F83C30184630BD1F
:104640000000014090F83C30012B1FD0CB688A68F5
:1046500023F4407313434A6823F4806313430A68C6
:1046600023F4006313430A6923F4805313434A6914
:1046700023F400531343CA6923F4804313430268AD
:104680005364002380F83C3018467047022070477E
:10469000026802F10C0353E8003F23F490730C32DC
:1046A00042E8003102680029F2D102F1140353E814
:1046B000003F23F0010302F1140C4CE80031002903
:1046C000F3D1036B012B0BD102F10C0353E8003F34
:1046D00023F0100302F10C0C4CE800310029F3D157
:1046E000202380F83E300023036370470268C168CE
:1046F000136923F440530B4370B513610546836877
:104700000069D168034368690343E86921F41641ED
:1047100021F00C0103430B43D3605369A96923F4CF
:1047200040730B4353611F4B9A4203D003F58063E0
:104730009A4223D1FFF78AFBEB691921B3F5004FA9
:10474000D5E90046A0FB01011BD1B2194FF00003CF
:104750005B41FCF779FA6421B0FBF1F501FB15032D
:10476000DB003233B3FBF1F303F007025B0002EB33
:10477000051203F4F8731344A36070BDFFF756FBF2
:10478000DAE7B200B30FFCF75FFA6422B0FBF2F194
:1047900002FB11031B013233B3FBF2F303EB0113F2
:1047A000EAE700BF00100140F8B504460E46174680
:1047B0001D462268136836EA030301D1002028E071
:1047C0006B1CF7D025B1FEF735F8C01B8542F0D23F
:1047D000226802F10C0353E8003F23F4D0730C323B
:1047E00042E8003021680028F2D101F1140353E8B7
:1047F000003F23F0010301F1140040E80032002AD9
:10480000F3D1202384F83D3084F83C2084F83E30F6
:104810000320F8BD10B5044640B390F83D3003F0D6
:10482000FF021BB980F83C20FDF7D2FE226824234A
:1048300084F83D30D36823F40053D3602046FFF75B
:1048400055FF23681A6922F490421A615A6922F0CE
:104850002A025A61DA6842F40052DA60002020230A
:10486000206484F83D3084F83E3010BD0120FCE720
:10487000F7B5174690F83D200093202A04460E46CF
:1048800049D1002945D0002F43D090F83C20012A7F
:1048900041D0012280F83C2000252122056480F8C7
:1048A0003D20FDF7C7FFA168009BA784B1F5805F9D
:1048B0000246E78403D1216909B935460E46002135
:1048C00084F83C10E18C89B241B940212046FFF7C1
:1048D0006BFF60B9202384F83D3009E08021204639
:1048E000CDE90023FFF760FFDDE9002310B10320CD
:1048F00003B0F0BD20684EB935F8021BC1F30801C2
:104900004160E18C013989B2E184DBE716F8011BD3
:10491000F6E70120ECE70220EAE790F83D30202B93
:1049200018D1A9B1A2B190F83C30012B12D0C284A9
:1049300001628284016800232122036480F83C30F4
:1049400080F83D20CA6842F08002CA60184670476D
:1049500001207047022070477047704708B5806B90
:104960000023C385C384FFF7F8FF08BD704707B570
:104970008168836A0268B1F5805F3ED101690029D0
:104980003ED15268C2F3080223F8022B8362C38D22
:10499000013B9BB2C385002B2CD10268D16821F06A
:1049A0002001D160D16821F48071D160516921F07A
:1049B00001015161202280F83E20026B012A026829
:1049C00028D1036302F10C0353E8003F23F01003E6
:1049D00002F10C0C4CE800310029F3D11368DB061E
:1049E00005D501911368019353680193019B818D53
:1049F000FFF7BCFF03B05DF804FB39B9016929B9C1
:104A00005268D2B21A70836A0133BFE7526802F06B
:104A10007F02F7E7FDF72AF9ECE70000036837B5F6
:104A20001A68D9685D6912F00F0F04460CD195061B
:104A300070D58D066ED590F83E30222B64D103B030
:104A4000BDE83040FFF793BF05F0010001F4907519
:104A500005435FD0D50705D5CB0542BF236C43F096
:104A600001032364550704D518B1236C43F00203F6
:104A70002364930704D518B1236C43F00403236423
:104A8000150707D501F0200303431EBF236C43F035
:104A900008032364236C002B36D0900608D58A06C1
:104AA00006D594F83E30222B02D12046FFF75FFF57
:104AB00023685B69256C03F0400305F008051D437E
:104AC000204623D0FFF7E4FD226853695B0618D522
:104AD00002F1140353E8003F23F0400302F11400F5
:104AE00040E800310029F3D1A06B50B1724B03654F
:104AF000FEF732F940B1A06B036D03B0BDE8304062
:104B000018472046FFF729FF03B030BDFFF725FF08
:104B10002564F9E7206B012840F09180D50640F12B
:104B20008E80C80640F18B80002201921A680192A3
:104B30005A680192019A5A6955064CD5A16B0A68C8
:104B4000526892B2002ADFD0A08D9042DCD9E28573
:104B5000CA69B2F5807F36D003F10C0252E8002F0B
:104B600022F4807203F10C0040E800210029F3D107
:104B700003F1140252E8002F22F0010203F11400A5
:104B800040E800210029F3D103F1140252E8002F7C
:104B900022F0400203F1140040E800210029F3D183
:104BA000202284F83E20216303F10C0252E8002FFA
:104BB00022F0100203F10C0040E800210029F3D19B
:104BC000A06BFEF785F8E38DA18DC91A89B2204646
:104BD000FFF7CCFE98E7E18D8AB2E18D89B200291A
:104BE00092D0A18D891A89B200298DD003F10C02CF
:104BF00052E8002F22F4907203F10C0545E80020E2
:104C00000028F3D103F1140252E8002F22F0010230
:104C100003F1140545E800200028F3D1202284F890
:104C20003E20206303F10C0252E8002F22F0100214
:104C300003F10C0545E800200028F3D1C7E7100672
:104C400028D50D0626D594F83D20212A7FF45CAFA7
:104C5000A168226AB1F5805F17D12169A9B932F83C
:104C6000021BC1F3080159602262E28C013A92B240
:104C7000E284002A7FF448AFDA6822F08002DA602A
:104C8000DA6842F04002DA603EE7511C2162127895
:104C90005A60EAE750067FF537AF4A067FF534AF32
:104CA000DA6822F04002DA60202384F83D302046A2
:104CB000FFF752FE28E700BF5D490008C2850023C8
:104CC00082852222036480F83E20026980F83C300D
:104CD000816203681AB1DA6842F48072DA605A6954
:104CE00042F001025A61DA6842F02002DA600020E4
:104CF000704770B490F83E60202E10D161B15AB167
:104D000090F83C40012C0AD0012480F83C4000245B
:104D1000046370BCFFF7D2BF012070BC7047022053
:104D2000FBE70000EFF305832BB9064B186828B9A1
:104D300001221A6070476FF0050070474FF0FF3096
:104D4000704700BFDC0A002010B5EFF305845CB9A2
:104D5000084B1A68012A0AD1074AD47702221A603E
:104D600000F088FD204610BD6FF00500FBE74FF016
:104D7000FF30F8E7DC0A002000ED00E0F0B587B076
:104D8000144600220B460592EFF30582D2B9C8B152
:104D9000002C2FD0A569002D08BF1825691E3729C2
:104DA000AC462BD86168C90728D466696EB1B208D1
:104DB000D4E9027E216857B1BEF15B0F02D92469A4
:104DC00004B1EEB9059807B0F0BD8022F0E7BEF15E
:104DD000000FF7D12469002CF4D10C4605A9CDE9C8
:104DE00000C192B2214600F018FD01281CBF00232B
:104DF0000593E7E74FF0180C8022EFE71046E2E753
:104E0000CDE90147009500F0D0FC0590DAE710B538
:104E1000EFF3058424B910B100F08AFE204610BDDE
:104E20006FF00500FBE70000034B0360034B0B60D2
:104E300080231360704700BF800A00208008002094
:104E4000034B0360034B0B604FF480731360704798
:104E5000E00E0020E00A002000F108034FF0FF32CE
:104E6000C0E902234360036100230360704700230D
:104E70000361704743684B609A688A609A68516022
:104E800099600368086101330360704730B50C68AE
:104E9000631C0AD103695A684A6091608B6059604B
:104EA000036808610133036030BD00F10802134656
:104EB00052681568A542FAD9EDE7D0E901120369F5
:104EC0008A6051605968814208BF5A6000220261BD
:104ED0001A68013A1A601868704710B5044601F064
:104EE000F9F9A46B01F016FAB4FA84F0400910BD88
:104EF000F8B51546026C866B044652B9076847BB85
:104F0000806800F04DFFA76005460136A66328467D
:104F1000F8BD65B9406802F0CFFB6368226C1344AA
:104F2000A26863609342F0D323686360EDE7C068D2
:104F300002F0C2FB226CE36851429B1A2268E360D4
:104F400093423EBFA3685B18E360022D01D116B106
:104F5000013E0025D9E73546D7E7034610B41A6C61
:104F600008466AB1DC68996814448C4228BF196805
:104F7000DC6028BFD960D9685DF8044B02F09CBBA7
:104F80005DF8044B704770B5044601F0A3F994F83E
:104F9000455004F124066DB2002D14DCFF2384F883
:104FA000453001F0B7F901F095F994F8445004F157
:104FB00010066DB2002D12DCFF2384F84430BDE8EA
:104FC000704001F0A7B9636A002BE7D0304600F0CB
:104FD00045FE08B100F0CEFE013D6DB2DCE723696D
:104FE000002BE9D0304600F039FE08B100F0C2FED7
:104FF000013D6DB2DEE738B50D46044640B94FF0CD
:10500000500383F31188BFF36F8FBFF34F8FFEE719
:1050100001F060F9D4E90F31226862604B43D01887
:105020005B1A1344A060E3600020FF23A06384F8B0
:10503000443084F84530A5B9236973B104F11000F8
:1050400000F00CFE48B14FF0E0234FF08052C3F85F
:10505000042DBFF34F8FBFF36F8F01F05BF9012079
:1050600038BD04F11000FFF7F7FE04F12400FFF74C
:10507000F3FEF2E713B51C4640B94FF0500383F33B
:105080001188BFF36F8FBFF34F8FFEE743B94FF027
:10509000500383F31188BFF36F8FBFF34F8FFEE789
:1050A0004AB191B94FF0500383F31188BFF36F8F6A
:1050B000BFF34F8FFEE741B14FF0500383F31188E8
:1050C000BFF36F8FBFF34F8FFEE750230193019B18
:1050D000502B08D04FF0500383F31188BFF36F8F2C
:1050E000BFF34F8FFEE7002908BF2246019B2260D5
:1050F0000123C4E90F0184F8463019462046FFF722
:105100007AFF9DF8103084F84C30204602B010BD74
:105110002DE9F04385B0884601921F46044640B908
:105120004FF0500383F31188BFF36F8FBFF34F8F9E
:10513000FEE751B9036C43B14FF0500383F311887C
:10514000BFF36F8FBFF34F8FFEE7022F0BD1E36BDF
:10515000012B08D04FF0500383F31188BFF36F8FFA
:10516000BFF34F8FFEE700F00BFE064650B9019BE0
:105170004BB14FF0500383F31188BFF36F8FBFF330
:105180004F8FFEE700264FF0000937E0019D1DB963
:1051900001F0C0F8002052E016B902A800F0A2FD0C
:1051A00001F0B8F800F0ACFB01F094F894F844304A
:1051B000FF2B08BF84F8449094F84530FF2B08BFBC
:1051C00084F8459001F0A6F801A902A800F096FD28
:1051D00000284AD101F07EF8A26BE36B9A4231D1EC
:1051E00001F098F8019904F1100000F0FFFC20464E
:1051F000FFF7C9FE00F028FC60B3012601F06AF851
:10520000A26BE36B9A4201D3022FBFD13A464146CB
:105210002046FFF76DFE636A1BB104F1240000F025
:105220001DFD48B14FF0E0234FF08052C3F8042D2C
:10523000BFF34F8FBFF36F8F01F06CF8012005B003
:10524000BDE8F08301F066F82046FFF79CFE00F011
:10525000FBFBD2E74FF0E0234FF08052C3F8042D60
:10526000BFF34F8FBFF36F8FC7E72046FFF78BFE6B
:1052700000F0EAFB8EE72DE9F843894690461F4689
:10528000044640B94FF0500383F31188BFF36F8F8A
:10529000BFF34F8FFEE751B9036C43B14FF050039A
:1052A00083F31188BFF36F8FBFF34F8FFEE7022F99
:1052B0000BD1E36B012B08D04FF0500383F311881F
:1052C000BFF36F8FBFF34F8FFEE701F019F9EFF3D4
:1052D00011864FF0500383F31188BFF36F8FBFF334
:1052E0004F8FA26BE36B9A4201D3022F23D194F824
:1052F0004550A36B6DB23A4649462046FFF7F8FD8C
:105300006B1C13D1636A0BB901200BE004F124007C
:1053100000F0A4FC0028F7D0B8F1000FF4D0012071
:10532000C8F8000086F31188BDE8F88301356DB236
:1053300084F84550E8E70020F4E72DE9FF410F46E7
:105340000192044640B94FF0500383F31188BFF334
:105350006F8FBFF34F8FFEE751B9036C43B14FF02E
:10536000500383F31188BFF36F8FBFF34F8FFEE7B6
:1053700000F006FD064650B9019B4BB14FF05003BB
:1053800083F31188BFF36F8FBFF34F8FFEE70026C3
:105390004FF000083DE0019D1DB900F0BBFF00206B
:1053A00056E016B902A800F09DFC00F0B3FF00F033
:1053B000A7FA00F08FFF94F84430FF2B08BF84F861
:1053C000448094F84530FF2B08BF84F8458000F0F6
:1053D000A1FF01A902A800F091FC002841D12046BC
:1053E000FFF77BFDB8B3019904F1240000F0FEFB48
:1053F0002046FFF7C8FD00F027FB48B94FF0E02337
:105400004FF08052C3F8042DBFF34F8FBFF36F8F5F
:10541000012600F05FFFA56B002DBCD03946204669
:10542000013DFFF79AFDA563236973B104F11000F4
:1054300000F014FC48B14FF0E0234FF08052C3F865
:10544000042DBFF34F8FBFF36F8F00F063FF012078
:1054500004B0BDE8F0812046FFF795FD00F0F4FAB6
:10546000D6E72046FFF78FFD00F0EEFA2046FFF763
:1054700034FD0028CCD092E710B5074A002352F83B
:1054800033402CB942F8331002EBC303586010BD0F
:105490000133082BF3D1FAE73C0F002070B5044626
:1054A0000D46164600F016FF94F84430FF2B04BF5B
:1054B000002384F8443094F84530FF2B04BF0023C8
:1054C00084F8453000F026FFA36B2BB932462946FD
:1054D00004F1240000F0A4FB2046BDE87040FFF773
:1054E00052BD00002DE9F041044600F0F3FE304BC0
:1054F000304E1A68304F01321A603568002D4BD19A
:1055000034601B68012B1FD1B84640460135FFF7B8
:10551000A3FC382D08F11408F7D1DFF8C480274D1B
:105520004046FFF799FC2846FFF796FC2448FFF712
:1055300093FC2448FFF790FC2348FFF78DFC234B96
:10554000C3F80080224B1D60224A136801331360A8
:10555000214A63641168E36A14208B4200FB0370E4
:1055600004F1040188BF1360FFF784FC00F0D2FE51
:105570001A4B1B6873B13368DA6AE36A9A4209D23C
:105580004FF0E0234FF08052C3F8042DBFF34F8F4C
:10559000BFF36F8FBDE8F081104B1B68002BD3D198
:1055A0003368DA6AE36A9A4298BF3460CCE700BF96
:1055B000E81300207C0F0020880F0020101400202A
:1055C000301400205C14002048140020800F0020BC
:1055D000840F0020F4130020F8130020441400204E
:1055E000FC130020F8B5154B154E1D6804463068B5
:1055F00004300F46FFF761FC631C07D137B13168F7
:105600001048BDE8F8400431FFF734BC33682C196A
:105610005C6007D30C4B18683168BDE8F840043172
:10562000FFF734BC094B186831680431FFF72EFCD2
:10563000074B1A68A24288BF1C60F8BD7014002096
:105640007C0F002048140020840F0020800F0020D1
:1056500024140020064A13681968064B19B94FF044
:10566000FF321A6070471268D268D2685268F8E751
:10567000800F00202414002010B590F85930044603
:105680003BB9006B01F026F82046BDE8104001F060
:1056900021B8012BF9D0022B08D04FF0500383F32F
:1056A0001188BFF36F8FBFF34F8FFEE710BD00006F
:1056B00080B5134C134F144D236873B9134B1B68FB
:1056C000012BF8D94FF0E0234FF08052C3F8042D9E
:1056D000BFF34F8FBFF36F8FEDE700F0FBFDFB686B
:1056E000DE68301DFFF7E9FB2B68013B2B60236868
:1056F000013B236000F00EFE3046FFF7BDFFDBE705
:10570000EC1300205C140020E8130020880F002018
:105710002DE9F047DDE909844FEA82094A46064649
:105720000D46206BA5211F4601F0D4FF226BA9F185
:105730000409914429F00709A5B36B1E04F1340252
:105740000F3513F8010F02F8010B08B1AB42F8D185
:10575000002384F84330089D372D28BF37254FF0AC
:10576000000AE562E564201DC4F850A0FFF77FFB46
:10577000C5F1380504F11800FFF779FBC4F854A00F
:105780002461A561646284F858A03A4631464846CF
:1057900000F074FD2060B8F1000F01D0C8F800409F
:1057A000BDE8F08784F83450D5E770B586B0DDE900
:1057B0000B5445B94FF0500383F31188BFF36F8F3B
:1057C000BFF34F8FFEE744B94FF0500383F31188C6
:1057D000BFF36F8FBFF34F8FFEE75C260596059EE4
:1057E0005C2E08D04FF0500383F31188BFF36F8F06
:1057F000BFF34F8FFEE72563022584F8595004ADAF
:1058000001950A9D02940095059EFFF781FF2046B1
:10581000FFF768FE049806B070BD2DE9F043074617
:1058200085B0900088461646994600F0BBFE0546B6
:10583000E8B15C2000F0B6FE0446A8B1002380F871
:1058400059300D9B056301930C9B029000933246E7
:105850004B4641463846FFF75BFF2046FFF742FEC6
:10586000012005B0BDE8F083284600F033FF4FF07B
:10587000FF30F6E710B588B0002407AA06A905A8EE
:10588000CDE90544FFF7D0FA059B0293069B079AE2
:1058900016491748CDE900432346FFF786FF18B3A2
:1058A00000F014FB012814D14FF0500383F311884A
:1058B000BFF36F8FBFF34F8F0E4B4FF0FF321A6065
:1058C0000D4B18600D4B1C6008B0BDE8104000F097
:1058D00091BD013008D14FF0500383F31188BFF31D
:1058E0006F8FBFF34F8FFEE708B010BD74B3000891
:1058F000B156000824140020441400207014002025
:10590000024A136801331360704700BFF013002090
:10591000014B1868704700BF701400203F4B1B6894
:105920002DE9F74F002B73D13D4B1D6801351D60EC
:10593000BDB93C4B1A68126842B14FF0500383F373
:105940001188BFF36F8FBFF34F8FFEE7364A196898
:10595000106818601160354A136801331360FFF74F
:1059600079FE334E334F3368DFF8D4809D424FF0D9
:10597000000411D2D8F80030DB6A14225343FB58DC
:10598000022B2D4B1B6828BF0124002B18BF0124BC
:10599000204603B0BDE8F08FDFF88890DFF8A4A0C0
:1059A000D9F800301B681BB94FF0FF333360E1E7D3
:1059B000D9F80030DB68D3F80CB0DBF8042095424E
:1059C00001D23260D6E70BF1040108460191FFF7DE
:1059D00074FADBF82820019922B10BF11800FFF7C7
:1059E0006CFA0199DBF82C00DAF8002014239042BD
:1059F00088BFCAF8000003FB0070FFF73BFAD8F835
:105A00000010DBF82C20CB6A9A4228BF0124C7E79C
:105A10000A4A1368013313600024B9E7F013002029
:105A200070140020800F0020840F00202814002014
:105A300024140020880F0020741400202C1400204F
:105A40007C0F0020F8130020F7B5314C236843B9D0
:105A50004FF0500383F31188BFF36F8FBFF34F8F65
:105A6000FEE700F037FC2368013B236024682CB17B
:105A7000002400F04FFC204603B0F0BD254B1B680E
:105A8000002BF5D0244D254E254F1EE0EB68DC6839
:105A900004F11800FFF711FA211D08460191FFF7E4
:105AA0000CFAE36A326801991420934200FB0370F8
:105AB00088BF3360FFF7DEF91A4BE26A1B68DB6AC6
:105AC0009A4202D3184B01221A602B68002BDDD1B9
:105AD0000CB1FFF7BFFD154D2C6844B1124E0127E4
